:100000000C9463000C948B000C948B000C948B006C
:100010000C948B000C948B000C948B000C948B0034
:100020000C948B000C948B000C948B000C948B0024
:100030000C948B000C948B000C948B000C948B0014
:100040000C9497070C948B000C948B000C948B00F1
:100050000C948B000C948B000C948B000C948B00F4
:100060000C948B000C948B000000000024002700EF
:100070002A0000000000250028002B0000000000DE
:1000800023002600290004040404040404040202DA
:100090000202020203030303030301020408102007
:1000A0004080010204081020010204081020000012
:1000B0000007000201000003040600000000000029
:1000C0000000E800E10011241FBECFEFD8E0DEBF42
:1000D000CDBF11E0A0E0B1E0E4EEFBE102C005908D
:1000E0000D92A633B107D9F711E0A6E3B1E001C044
:1000F0001D92A236B107E1F710E0C4ECD0E004C0D5
:100100002297FE010E94E10DC23CD107C9F70E946F
:1001100088070C94E50D0C940000FB01DC0102C083
:1001200001900D9241505040D8F70895FB01DC0139
:100130008D91019080190110D9F3990B0895FB015D
:10014000DC0101900D920020E1F70895CF92EF922B
:10015000FF920F931F938130910521F56F5F7F4FC1
:1001600051F586E391E06CE04BE025E004E053E0DC
:10017000E52E32E0C32E0E9430048BE491E06EE065
:1001800020E030E040E251E40F2EFAE9EF2EF9E9E9
:10019000FF2EF9E10F2FF0E41F2FF02DCC240E9449
:1001A000830109C0892B39F46F5F7F4F21F48BE401
:1001B00091E00E94AF011F910F91FF90EF90CF90BF
:1001C000089580E090E06FEF7FEF0E94A600089511
:1001D00081E090E06FEF7FEF0E94A60008957F928C
:1001E0008F929F92AF92BF92CF92DF92EF92FF9247
:1001F0000F931F93DF93CF93CDB7DEB72C970FB636
:10020000F894DEBF0FBECDBF7BE4E72E71E0F72E82
:10021000C7010E94B0014B015C016E010894C11C32
:10022000D11CC601B70120E030E048E451E40E944F
:1002300038028E01095F1F4FC801B6010E9478077E
:10024000C701B80120E030E048E451E40E94F40125
:10025000782EC8010E94820706E311E0C80160E021
:1002600040E00E944303C801B6010E945F0660E0BF
:10027000E62E61E0F62EC801B7010E947505C8019F
:10028000672D70E04AE050E00E946205C801B701A6
:100290000E947505C80160E041E00E944303C80167
:1002A000B501A40122E030E00E945C0664E670E043
:1002B00080E090E00E942408C6010E9482072C96EC
:1002C0000FB6F894DEBF0FBECDBFCF91DF911F9167
:1002D0000F91FF90EF90DF90CF90BF90AF909F90E5
:1002E0008F907F9008950F931F9306E311E0C8014C
:1002F00060E142E020E00E947A03C8010E9472039C
:100300001F910F910895AF92BF92CF92EF92FF92FB
:100310000F931F935C01FC01C0826183CA01B90184
:10032000A80197010E94100D2BED3FE049E450E435
:100330000E94100D9B01AC0160E070E080E894E445
:100340000E94C10BF50162837383848395831F919F
:100350000F91FF90EF90CF90BF90AF9008950895C8
:10036000EF92FF920F931F93CF93DF937C01C0E036
:10037000D0E000E010E0F7018081882341F0818126
:100380000E948C08C150DC4FC81BD90B06C0F70176
:1003900081810E948C08C80FD91F6AE070E080E05C
:1003A00090E00E9424080F5F1F4F0530110519F7D8
:1003B000CE0165E070E00E94960DF70171876087BD
:1003C000882777FD8095982F0E945C0CF701228189
:1003D0003381448155810E94C10BDF91CF911F91E0
:1003E0000F91FF90EF9008959F92AF92BF92CF929E
:1003F000DF92EF92FF920F931F93CF93DF93EB0166
:1004000059016A010E94B0017B018C01CE0162E0BA
:1004100071E00E94A306882351F09924C601B5011A
:10042000A80197010E94BD0B1816ACF012C0CE01B6
:1004300067E071E00E94A306882311F499240BC0A1
:100440009924C601B501A80197010E940C0D8823CB
:1004500014F099249394892DDF91CF911F910F91DE
:10046000FF90EF90DF90CF90BF90AF909F90089556
:100470008F929F92AF92BF92CF92DF92EF92FF92B4
:100480000F931F93982E892ECB0159016A010E9468
:10049000B0017B018C01892D982D6CE071E00E94E8
:1004A0002F07C801B701A60195010E940C0D18166F
:1004B0002CF4892D982D67E071E00CC0C801B701BC
:1004C000A60195010E94BD0B882334F4892D982D37
:1004D00062E071E00E944807892D982D1F910F91CD
:1004E000FF90EF90DF90CF90BF90AF909F908F9054
:1004F00008950F931F938C01FC01868160E00E9498
:10050000ED0881E090E00E94DF07F801868161E05C
:100510000E94ED0881E090E00E94DF07F8018681EB
:1005200060E00E94ED0884E690E00E94DF071F91E2
:100530000F910895CF92DF92EF92FF920F931F9346
:10054000CF93DF93D82EC92E282F392FC9018C01C4
:10055000C0E0D0E0E62EFF24F801878161E00E9430
:10056000AE08B7010C2E02C0759567950A94E2F7A4
:100570006170F80187810E94ED0821960F5F1F4F7F
:10058000C830D10549F78D2D9C2D0E947902DF914D
:10059000CF911F910F91FF90EF90DF90CF90089532
:1005A000CF92DF92EF92FF920F931F93CF93DF933F
:1005B000D82EC92E282F392FC9018C01C0E0D0E0D8
:1005C000E62EFF24F801878161E00E94AE08B701A2
:1005D0000C2E02C0759567950A94E2F76170F801D8
:1005E00087810E94ED0821960F5F1F4FC430D1050F
:1005F00049F78D2D9C2D0E947902DF91CF911F919B
:100600000F91FF90EF90DF90CF9008951F93CF93BD
:10061000DF93EC01162F8C81642F0E94ED088D81F1
:100620008F3F19F060E00E94ED088F8584FF05C0C0
:10063000CE01612F0E949A020EC0612F70E084E00B
:10064000759567958A95E1F7CE010E94D002CE019B
:10065000612F0E94D002DF91CF911F91089541E058
:100660000E94060381E090E0089540E00E940603A6
:100670000895FC016089862F8460808B6C60CF01B7
:100680000E9435030895DF93CF93CDB7DEB7289747
:100690000FB6F894DEBF0FBECDBF9C01FE013196B0
:1006A000AEE2B1E088E00D9001928150E1F7F901EE
:1006B0008389481710F0482F4150E42FF0E0EE0FE7
:1006C000FF1FEC0FFD1F8181680F6068C9010E9448
:1006D000350328960FB6F894DEBF0FBECDBFCF917D
:1006E000DF91089561E00E94350380ED97E00E945C
:1006F000DF070895CF93DF93EC01423018F08F8528
:1007000088608F874B8B1C8A222329F0413019F493
:100710008F8584608F8780E593EC0E94DF078C8152
:1007200060E00E94ED088E8160E00E94ED088D81FE
:100730008F3F19F060E00E94ED086F8564FD1DC0D9
:10074000CE0163E00E94D00284E991E10E94DF07BC
:10075000CE0163E00E94D00284E991E10E94DF07AC
:10076000CE0163E00E94D00286E990E00E94DF079C
:10077000CE0162E00E94D00216C06062CE010E94EB
:10078000350384E991E10E94DF076F856062CE0145
:100790000E94350386E990E00E94DF076F85606262
:1007A000CE010E9435036F856062CE010E94350341
:1007B00084E0888BCE010E943903CE010E9472032F
:1007C00082E0898BCE0166E00E943503DF91CF91F4
:1007D00008956F927F928F92AF92CF92EF920F9384
:1007E0001F93DF93CF93CDB7DEB73C01162F842F35
:1007F000F301448325830683E782C086A18682862F
:100800009D8593879E8594879F85958798899687F0
:1008100061E00E94AE08F30185818F3F19F061E02D
:100820000E94AE08F301868161E00E94AE081123A8
:1008300019F0F301178603C080E1F3018787C30134
:1008400060E141E020E00E947A03CF91DF911F91A7
:100850000F91EF90CF90AF908F907F906F90089511
:100860008F92AF92CF92EF920F931F93CF93DF931C
:10087000DC01362F542F722F102FAE2C8C2C139698
:100880001C921E9212978AE291E011969C938E938D
:1008900000D000D0EDB7FEB73196CDB7DEB71982E4
:1008A000118212821382CD0161E0432F2FEF052FB9
:1008B000E72EC12E0E94E9030F900F900F900F902A
:1008C000DF91CF911F910F91EF90CF90AF908F90CC
:1008D0000895CF92DF92EF92FF920F931F93CF93E1
:1008E000DF937C016B018A01C0E0D0E00FC0D6012C
:1008F0006D916D01D701ED91FC910190F081E02D9A
:10090000C7010995C80FD91F0150104001151105E5
:1009100071F7CE01DF91CF911F910F91FF90EF9072
:10092000DF90CF900895CF93DF93EC0161157105AF
:1009300019F420E030E00FC0DB010D900020E9F752
:100940001197A61BB70BE881F9810280F381E02D96
:10095000AD0109959C01C901DF91CF9108954F9296
:100960005F927F928F929F92AF92BF92CF92DF92CF
:10097000EF92FF920F931F93DF93CF93CDB7DEB724
:10098000A1970FB6F894DEBF0FBECDBF2C01742E19
:10099000CB01223008F42AE019A231E2C32ED12C77
:1009A000CC0EDD1E822E9924AA24BB24672D752F20
:1009B000A50194010E94A90D79018A01C801B7011E
:1009C000A50194010E94770D472D461B0894C1088C
:1009D000D1084A3014F4405D01C0495CF6014083FF
:1009E000E114F1040105110521F07E2C5F2DC801F1
:1009F000DDCFC201B6010E949304A1960FB6F89410
:100A0000DEBF0FBECDBFCF91DF911F910F91FF9041
:100A1000EF90DF90CF90BF90AF909F908F907F909E
:100A20005F904F900895DC012115310541F4ED915F
:100A3000FC910190F081E02D642F099508950E94AA
:100A4000AF040895CF92DF92EF92FF920F931F931E
:100A5000CF93DF93EC016A017B012115310541F44D
:100A6000E881F9810190F081E02D642F09951FC084
:100A70002A303105D1F477FF17C0E881F981019060
:100A8000F081E02D6DE209958C0144275527BA01CC
:100A90004C195D096E097F09CE012AE00E94AF045E
:100AA0009801280F391F04C02AE00E94AF049C015E
:100AB000C901DF91CF911F910F91FF90EF90DF90CF
:100AC000CF900895EF92FF920F931F937B019A01AD
:100AD0000027F7FC0095102FB801A7010E942205FE
:100AE0001F910F91FF90EF9008950E949304089535
:100AF0007F928F929F92AF92BF92CF92DF92EF92AE
:100B0000FF920F931F93CF93DF934C017A018B01D8
:100B1000722ECB01BA01A80197010E94730D8823A0
:100B200021F0C40161E171E021C0C0E0D0E05701D3
:100B30006801E894D7F8C601B5012FEF3FEF4FE702
:100B40005FE70E94730D882351F4C601B5012FEFB2
:100B50003FEF4FE75FE70E94BD0B181614F0C1E0AE
:100B6000D0E0219739F0C40165E171E00E9493045F
:100B7000EC0193C0C801B7012FEF3FEF4FE75FE4EF
:100B80000E940C0D181654F0C801B7012FEF3FEF6B
:100B90004FE75FEC0E94BD0B882324F4C40169E198
:100BA00071E0E4CFC801B70120E030E040E050E060
:100BB0000E94BD0B87FD03C0C0E0D0E00EC0D40191
:100BC000ED91FC910190F081E02DC4016DE2099559
:100BD000EC0117FB109517F9109520E030E040E08C
:100BE0005FE3DD240BC0CA01B90120E030E040E240
:100BF00051E40E94C10B9B01AC01D394D71498F32C
:100C0000C801B7010E94590B5B016C010E942E0CB8
:100C10007B018C01C401B801A7012AE030E00E94E9
:100C20001305C80FD91F772039F0C4016DE171E0B9
:100C30000E949304C80FD91FC801B7010E945A0C23
:100C40009B01AC01C601B5010E94580B24C020E0F5
:100C500030E040E251E40E94100D7B018C010E94C3
:100C6000290C5B016C01CC24B7FCC094DC2CC401C2
:100C7000B601A5012AE030E00E942205C80FD91F65
:100C8000C601B5010E945C0C9B01AC01C801B70113
:100C90000E94580B7A947720D1F6CE01DF91CF9144
:100CA0001F910F91FF90EF90DF90CF90BF90AF908A
:100CB0009F908F907F9008950E9478050895AF923D
:100CC000BF92CF92DF92EF92FF920F931F93CF9339
:100CD000DF935C016B01EE24FF24C0E0D0E010C084
:100CE000D501ED91FC9100811181C601BE010E94E8
:100CF0009206682FC501F8010995E80EF91E2196A4
:100D0000F60184819581C817D90750F3C701DF9197
:100D1000CF911F910F91FF90EF90DF90CF90BF90F8
:100D2000AF900895FC01848195816817790748F494
:100D30000190F081E02D309721F0E60FF71F8081C0
:100D4000089580E00895DC01FB0114968D919C913B
:100D50001597892B31F461157105A9F090E0808118
:100D600008C00D90BC91A02D6115710529F490E08B
:100D70008C91882349F407C0CD010E9496009C0104
:100D800090E0232B09F491E0892F08950F931F938E
:100D9000CF93DF93EC018B016F5F7F4F8881998147
:100DA0000E94760A009711F480E005C09983888339
:100DB0001B830A8381E0DF91CF911F910F910895EA
:100DC000CF93DF93EC0188819981892B29F08A8167
:100DD0009B818617970760F4CE010E94C606882380
:100DE00041F08C819D81892B19F4E881F981108271
:100DF00081E0DF91CF910895CF93DF93EC0188815B
:100E00009981009711F00E94DE09198218821D82D3
:100E10001C821B821A82DF91CF910895EF92FF927C
:100E20000F931F93CF93DF93EC017B018A01BA01EB
:100E30000E94E006882321F4CE010E94FC0607C030
:100E40001D830C8388819981B7010E949F00CE0188
:100E5000DF91CF911F910F91FF90EF900895CF9365
:100E6000DF93EC01198218821B821A821D821C8278
:100E70006115710551F0DB010D900020E9F7119724
:100E8000A61BB70BAD010E940E07DF91CF9108950D
:100E90000F931F93182F092F6115710559F0DB016E
:100EA0000D900020E9F71197A61BB70BAD010E942A
:100EB0000E0702C00E94FC06812F902F1F910F91F8
:100EC0000895CF93DF93EC01FB018617970761F03C
:100ED000608171816115710529F0448155810E94FD
:100EE0000E0702C00E94FC06CE01DF91CF9108954B
:100EF000FC011182108213821282158214820E94D8
:100F000061070895FC01808191810E94DE090895A6
:100F1000CF93DF930E94E9070E947301C0E0D0E005
:100F20000E94EF002097E1F30E940000F9CF1F928A
:100F30000F920FB60F9211242F933F938F939F938D
:100F4000AF93BF938091590190915A01A0915B0199
:100F5000B0915C0130915D010196A11DB11D232F5F
:100F60002D5F2D3720F02D570196A11DB11D209327
:100F70005D018093590190935A01A0935B01B09356
:100F80005C018091550190915601A0915701B0915B
:100F900058010196A11DB11D8093550190935601F2
:100FA000A0935701B0935801BF91AF919F918F913A
:100FB0003F912F910F900FBE0F901F9018950197A2
:100FC00039F0880F991F880F991F02970197F1F741
:100FD0000895789484B5826084BD84B5816084BDB1
:100FE00085B5826085BD85B5816085BDEEE6F0E0A2
:100FF000808181608083E1E8F0E0108280818260FE
:101000008083808181608083E0E8F0E0808181607E
:101010008083E1EBF0E0808184608083E0EBF0E0AE
:10102000808181608083EAE7F0E080818460808352
:1010300080818260808380818160808380818068FC
:1010400080831092C1000895EF92FF920F931F9337
:10105000CF93DF937B018C013FB7F89480915501CA
:1010600090915601A0915701B091580126B5A89BC7
:1010700005C02F3F19F00196A11DB11D3FBFBA2F2A
:10108000A92F982F8827820F911DA11DB11D52E015
:10109000880F991FAA1FBB1F5A95D1F7EC0130C0CA
:1010A0000E94570B3FB7F8948091550190915601DB
:1010B000A0915701B091580126B5A89B05C02F3FBC
:1010C00019F00196A11DB11D3FBFBA2FA92F982F6E
:1010D0008827820F911DA11DB11D32E0880F991F35
:1010E000AA1FBB1F3A95D1F78C1B9D0B885E9340BE
:1010F000B8F20894E108F10801091109C851DC4F60
:10110000E114F1040105110559F6DF91CF911F910A
:101110000F91FF90EF900895982F8E3008F09E5019
:10112000977080911F018295880F880F807C892B92
:1011300080937C0080917A00806480937A00809113
:101140007A0086FDFCCF2091780040917900942FA1
:1011500080E030E0282B392BC9010895CF93DF932D
:10116000482F50E0CA0186569F4FFC0134914A57E0
:101170005F4FFA018491882369F190E0880F991FED
:10118000FC01E859FF4FA591B491FC01EE58FF4FC7
:10119000C591D491662351F42FB7F8948C91932F75
:1011A000909589238C93888189230BC0623061F4E8
:1011B0002FB7F8948C91932F909589238C938881E5
:1011C000832B88832FBF06C09FB7F8948C91832B05
:1011D0008C939FBFDF91CF910895482F50E0CA01B3
:1011E00082559F4FFC012491CA0186569F4FFC01F6
:1011F00094914A575F4FFA013491332309F440C068
:10120000222351F1233071F0243028F42130A1F051
:10121000223011F514C02630B1F02730C1F024304F
:10122000D9F404C0809180008F7703C08091800042
:101230008F7D8093800010C084B58F7702C084B505
:101240008F7D84BD09C08091B0008F7703C08091ED
:10125000B0008F7D8093B000E32FF0E0EE0FFF1F12
:10126000EE58FF4FA591B4912FB7F894662321F45F
:101270008C919095892302C08C91892B8C932FBFE0
:1012800008950F931F93CF93DF93BC018230910594
:1012900010F462E070E0E0916001F091610140E0E3
:1012A00050E0A0E0B0E024C08081918186179707CC
:1012B000D0F08617970771F482819381109729F0F7
:1012C00013969C938E9312972CC0909361018093F8
:1012D000600127C04115510519F08417950718F4CE
:1012E0008D01AC01EF01DF01828193819C01F90145
:1012F0003097D1F641155105F9F0CA01861B970BBD
:101300008430910580F48A819B810115110521F0BB
:10131000F8019383828304C09093610180936001FC
:10132000FE01329645C0FE01E80FF91F61937193EB
:101330000297998388833CC080915E0190915F0100
:10134000892B41F4809122019091230190935F01B8
:1013500080935E0140912401509125014115510572
:1013600041F44DB75EB78091200190912101481B57
:10137000590B20915E0130915F0124173507B0F4BD
:10138000CA01821B930B8617970780F0AB014E5F53
:101390005F4F8417950750F0420F531F50935F0122
:1013A00040935E01F9016193719302C0E0E0F0E0C7
:1013B000CF01DF91CF911F910F910895CF93DF93CC
:1013C0009C01009709F48FC0EC0122971B821A82BE
:1013D00060916001709161016115710581F48881EE
:1013E0009981820F931F20915E0130915F01281730
:1013F000390739F5D0935F01C0935E0174C0DB01FA
:1014000040E050E0AC17BD0708F1BB83AA83FE01A2
:1014100021913191E20FF31FAE17BF0779F48D913F
:101420009C911197280F391F2E5F3F4F39832883D6
:1014300012968D919C9113979B838A834115510538
:1014400071F4D0936101C09360014DC012968D91EB
:101450009C911397AD01009711F0DC01D3CFDA0115
:101460001396DC93CE931297FA0121913191E20FFA
:10147000F31FCE17DF0769F488819981280F391F80
:101480002E5F3F4FFA01318320838A819B819383B2
:101490008283E0E0F0E0DB0112968D919C9113973E
:1014A000009719F0BC01FD01F6CFAB014E5F5F4F15
:1014B000DB018D919C91840F951F20915E013091ED
:1014C0005F012817390779F4309729F410926101E8
:1014D0001092600102C01382128242505040509319
:1014E0005F0140935E01DF91CF9108956F927F92EB
:1014F0008F929F92AF92BF92CF92DF92EF92FF9224
:101500000F931F93CF93DF938C01009729F4CB01A6
:101510000E9441098C01BBC08EEFE82E8FEFF82EA0
:10152000E00EF11E4801860E971E8E149F0408F4EB
:10153000ACC0D7014D915C91119746175707B8F091
:101540004530510508F4A3C0CA01049786179707D0
:1015500008F49DC042505040461B570BF401419384
:1015600051936D937C93CF010E94DE0990C05B0183
:10157000A41AB50A3801640E751EA0916001B091DD
:101580006101E0E0F0E0CC24DD2447C0A615B705FA
:10159000A9F5CD91DC911197CE0102968A159B0594
:1015A00068F1CE018A199B09029612962C91129726
:1015B00013963C91059758F0F40122833383CA199E
:1015C000DB09D183C083D7016D937C9309C04E5F43
:1015D0005F4F4C0F5D1FF70151834083C901FC0130
:1015E000C114D10431F0D6011396FC93EE931297F7
:1015F0004EC0F0936101E093600149C08D919C91D0
:101600001197E817F90708F4FC016D0112968C9107
:10161000129713969C919C01D901109709F0B6CFAF
:1016200080915E0190915F0186159705E9F4E617B8
:10163000F707D0F4209124013091250121153105BF
:1016400041F42DB73EB78091200190912101281BD4
:10165000390B82169306C8F490925F0180925E0166
:10166000F7017183608313C0CB010E944109EC0133
:10167000009759F0D7014D915C91B8010E948D00FF
:10168000C8010E94DE098E0102C000E010E0C8011E
:10169000DF91CF911F910F91FF90EF90DF90CF904E
:1016A000BF90AF909F908F907F906F900895089516
:1016B0005058BB27AA270ED075C166D130F06BD128
:1016C00020F031F49F3F11F41EF45BC10EF4E0955D
:1016D000E7FB51C1E92F77D180F3BA17620773078F
:1016E0008407950718F071F49EF58FC10EF4E0950C
:1016F0000B2EBA2FA02D0B01B90190010C01CA01CC
:10170000A0011124FF27591B99F0593F50F4503E76
:1017100068F11A16F040A22F232F342F4427585F68
:10172000F3CF469537952795A795F0405395C9F780
:101730007EF41F16BA0B620B730B840BBAF0915038
:10174000A1F0FF0FBB1F661F771F881FC2F70EC0D7
:10175000BA0F621F731F841F48F4879577956795AA
:10176000B795F7959E3F08F0B3CF9395880F08F093
:101770009927EE0F979587950895D9D008F481E0C1
:1017800008950CD00FC107D140F0FED030F021F405
:101790005F3F19F0F0C0511139C1F3C014D198F373
:1017A0009923C9F35523B1F3951B550BBB27AA27E2
:1017B00062177307840738F09F5F5F4F220F331F54
:1017C000441FAA1FA9F333D00E2E3AF0E0E830D020
:1017D00091505040E695001CCAF729D0FE2F27D023
:1017E000660F771F881FBB1F261737074807AB07F1
:1017F000B0E809F0BB0B802DBF01FF2793585F4F66
:101800002AF09E3F510568F0B6C000C15F3FECF37F
:10181000983EDCF3869577956795B795F7959F5F2A
:10182000C9F7880F911D9695879597F90895E1E07E
:10183000660F771F881FBB1F621773078407BA07DD
:1018400020F0621B730B840BBA0BEE1F88F7E09538
:10185000089504D06894B111D9C00895BCD088F01F
:101860009F5790F0B92F9927B751A0F0D1F0660F8C
:10187000771F881F991F1AF0BA95C9F712C0B130A7
:1018800081F0C3D0B1E00895C0C0672F782F8827BA
:10189000B85F39F0B93FCCF3869577956795B395E6
:1018A000D9F73EF490958095709561957F4F8F4F55
:1018B0009F4F0895E89409C097FB3EF4909580955A
:1018C000709561957F4F8F4F9F4F9923A9F0F92F06
:1018D00096E9BB279395F695879577956795B79584
:1018E000F111F8CFFAF4BB0F11F460FF1BC06F5F6A
:1018F0007F4F8F4F9F4F16C0882311F096E911C07C
:10190000772321F09EE8872F762F05C0662371F09C
:1019100096E8862F70E060E02AF09A95660F771FB0
:10192000881FDAF7880F9695879597F90895990F8C
:101930000008550FAA0BE0E8FEEF16161706E80799
:10194000F907C0F012161306E407F50798F0621BBA
:10195000730B840B950B39F40A2661F0232B242B8F
:10196000252B21F408950A2609F4A140A6958FEFAE
:10197000811D811D089597F99F6780E870E060E000
:1019800008959FEF80EC089500240A941616170618
:1019900018060906089500240A9412161306140660
:1019A00005060895092E0394000C11F4882352F0C3
:1019B000BB0F40F4BF2B11F460FF04C06F5F7F4F7B
:1019C0008F4F9F4F089557FD9058440F551F59F062
:1019D0005F3F71F04795880F97FB991F61F09F3F1C
:1019E00079F087950895121613061406551FF2CF45
:1019F0004695F1DF08C0161617061806991FF1CF95
:101A000086957105610508940895E894BB276627BB
:101A10007727CB0197F908958ADF08F48FEF0895AF
:101A20000BD0C0CFB1DF28F0B6DF18F0952309F056
:101A3000A2CFA7CF1124EACFC6DFA0F3959FD1F3A1
:101A4000950F50E0551F629FF001729FBB27F00D6C
:101A5000B11D639FAA27F00DB11DAA1F649F6627C1
:101A6000B00DA11D661F829F2227B00DA11D621F10
:101A7000739FB00DA11D621F839FA00D611D221FCA
:101A8000749F3327A00D611D231F849F600D211DAE
:101A9000822F762F6A2F11249F5750408AF0E1F051
:101AA00088234AF0EE0FFF1FBB1F661F771F881F9A
:101AB00091505040A9F79E3F510570F05CCFA6CFE2
:101AC0005F3FECF3983EDCF3869577956795B79585
:101AD000F795E7959F5FC1F7FE2B880F911D9695AF
:101AE000879597F9089523DF880B990B0895629FD6
:101AF000D001739FF001829FE00DF11D649FE00D06
:101B0000F11D929FF00D839FF00D749FF00D659F66
:101B1000F00D9927729FB00DE11DF91F639FB00D65
:101B2000E11DF91FBD01CF011124089597FB092E76
:101B300007260AD077FD04D02ED006D000201AF454
:101B4000709561957F4F0895F6F7909581959F4F19
:101B50000895A1E21A2EAA1BBB1BFD010DC0AA1FEE
:101B6000BB1FEE1FFF1FA217B307E407F50720F006
:101B7000A21BB30BE40BF50B661F771F881F991F81
:101B80001A9469F760957095809590959B01AC01CA
:101B9000BD01CF010895AA1BBB1B51E107C0AA1FBD
:101BA000BB1FA617B70710F0A61BB70B881F991FFE
:101BB0005A95A9F780959095BC01CD010895EE0F37
:101BC000FF1F0590F491E02D099410E0C4ECD0E0E3
:101BD00004C0FE010E94E10D2296C63CD107C9F760
:041BE000F894FFCFA7
:101BE40020005550202000444F574E0053544F506E
:101BF400006E616E00696E66006F7666002E0001ED
:101C0400800062010000000000002F03690400004E
:061C140040001400540022
:00000001FF
